:020000040800F2
:1000000078630020AD0200084B2700080325000894
:1000100049270008BD0A0008C93500080000000093
:10002000000000000000000000000000ED010008DA
:10003000930B000800000000490200087D29000819
:10004000C7020008C7020008C7020008C70200086C
:10005000C7020008C7020008C7020008C70200085C
:10006000C7020008C7020008C7020008D90A000832
:10007000E50A0008C7020008C7020008C702000816
:10008000C702000800000000C7020008C7020008FD
:10009000C7020008C7020008C7020008C70200081C
:1000A000C7020008C70200082D2A0008C70200087E
:1000B000C7020008C7020008C7020008C7020008FC
:1000C000C7020008C7020008C7020008C7020008EC
:1000D000C7020008C7020008B1350008C7020008BF
:1000E000C7020008C7020008C7020008C7020008CC
:1000F000C7020008C7020008C7020008000000008D
:1001000000000000C702000800000000C70200084D
:10011000C702000800000000392A0008C7020008D2
:10012000C7020008C7020008C7020008C70200088B
:10013000C70200080000000000000000C70200081D
:10014000C7020008C702000800000000000000000D
:10015000000000000000000000000000000000009F
:10016000000000000000000000000000C7020008BE
:10017000C7020008000000000000000000000000AE
:1001800000000000C702000800000000000000009E
:10019000000000000000000000000000000000005F
:1001A0000000000000000000C7020008C7020008AD
:1001B000C7020008C7020008C702000800000000CC
:1001C00000000000C702000800000000000000005E
:1001D000C7020008C7020008DFF80CD000F0CAFA16
:1001E00000480047D53F0008786300202C4B196871
:1001F0000868B0E8F04F80F30988BFF36F8F4FF0C5
:10020000000080F311887047000000000848006873
:10021000006880F308884FF0000080F3148862B60D
:1002200061B6BFF34F8FBFF36F8F00DF00BF00BF1A
:1002300008ED00E0DFF80C00016841F47001016096
:10024000704700BF88ED00E0EFF30980BFF36F8FC8
:10025000134B1A681EF0100F08BF20ED108A20E91A
:10026000F04F106009B44FF0500080F31188BFF3D5
:100270004F8FBFF36F8F05F021F84FF0000080F330
:10028000118809BC19680868B0E8F04F1EF0100F1B
:1002900008BFB0EC108A80F30988BFF36F8F7047F6
:1002A00020000020EFF305807047000006488047DB
:1002B00006480047FEE7FEE7FEE7FEE7FEE7FEE74B
:1002C000FEE7FEE7FEE7FEE7112A0008D901000875
:1002D0002DE9F05F0546002092469B46884606467B
:1002E000814640241BE0284641464746224600F00E
:1002F00079F853465A46C01A914110D31146184610
:10030000224600F060F82D1A67EB01084F4622469E
:100310000120002100F057F817EB00094E41201E84
:10032000A4F10104DFDC484631462A464346BDE8D5
:10033000F09F40EA01039B0703D009E008C9121FA0
:1003400008C0042AFAD203E011F8013B00F8013B8F
:10035000521EF9D27047D2B201E000F8012B491EBB
:10036000FBD270470022F6E710B513460A46044652
:100370001946FFF7F0FF204610BD421C10F8011B84
:100380000029FBD1801A7047034611F8012B00F8B1
:10039000012B002AF9D11846704730B50B460146AB
:1003A00000202022012409E021FA02F59D4205D314
:1003B00003FA02F5491B04FA02F52844151EA2F1BE
:1003C0000102F1DC30BD202A04DB203A00FA02F100
:1003D000002070479140C2F1200320FA03F3194333
:1003E00090407047202A04DB203A21FA02F00021D5
:1003F000704721FA02F3D040C2F120029140084335
:10040000194670472DE9FE4F804681EA0300C00F70
:100410000C46009021F0004123F00045B8EB0200AB
:10042000A94105D24046214690461C460B4602464D
:1004300023F00040104347D0270DC7F30A00C3F351
:100440000A510290401A019040286BDAC3F313005E
:1004500040F4801B0098924620B10023D2EB030A9F
:1004600063EB0B0B01985946C0F140025046FFF771
:10047000AAFF06460D4650465946019A00F08CF9EF
:1004800010EB08006141002487EA115284EAE77307
:100490001A4340D0009A62B3019A012A4FEA0752E8
:1004A00015DC001B61EB02014FF0004202EA07522B
:1004B000CDE90042001C41F5801132462B4600F088
:1004C0008CF903B0BDE8F08F40462146F9E7001BE8
:1004D00061EB0201001C41F5801300185B412018FC
:1004E000A2F5001747EB030140EAD570B6196D413C
:1004F00011E06D084FEA360645EAC0754FEA07522B
:10050000001B61EB0201001C41F5801149084FEA14
:1005100030000019514132462B4603B0BDE8F04F80
:1005200000F04CB90098012240000023D0EB0202F9
:1005300063EBE073009821464FEAE074B8EB0000EB
:1005400061EB0401E9E783F000435BE781F00041E0
:1005500058E72DE9FE4F81EA030404F0004421F03E
:10056000004100944FF0000B23F0004350EA0104D7
:100570005ED052EA03045BD0C3F30A54C1F30A55B8
:100580002C44A4F2F3340194A0FB0254C1F31301F0
:1005900041F48011C3F3130343F4801301FB0244BD
:1005A00000FB034E840A970A44EA815447EA8357C2
:1005B000A4FB076802958D0A05FB07854FEA932C7B
:1005C00004FB0C542705029D4FEA065847EA1637EC
:1005D000B5EB08056EEB070C870E920E47EA811704
:1005E00042EA8312A7FB0201B6EB0B0164EB0004A5
:1005F0002B0D43EA0C335E1844EB1C50DA4651468F
:10060000E7FB0201C5F313044FEA0B3343EA14532B
:100610004FEA0432019C43EA0603A4F10C0402945D
:10062000009CCDE900B400F0D8F803B0BDE8F08F2D
:1006300000200146F9E72DE9F04D81EA030404F0BA
:10064000004B21F0004514464FF0000A23F0004112
:1006500050EA050220D054EA01021DD0C5F30A5722
:100660000246C5F31303C1F31300C1F30A5640F465
:10067000801543F48013A7EB0608101BD64608F23A
:10068000FD3873EB050002D308F1010801E0921870
:100690005B41B8F1000F03DA00200146BDE8F08DA0
:1006A00000204FF48011064684460EE0171B73EBC2
:1006B000050705D3121B63EB050306434CEA010C47
:1006C00049084FEA300092185B4150EA0107EDD12A
:1006D00052EA030012D082EA040083EA05010843CB
:1006E00005D0101BAB4106D20122002306E00022F8
:1006F0004FF0004302E06FF0010253101AEB0600C6
:100700004CEB085110EB0A0041EB0B01BDE8F04D3A
:1007100000F054B8C1F30A52C1F3130140F2FF33A1
:1007200041F480119A4202DA00200146704740F2FB
:1007300033439A42A2F2334202DC5242FFF752BEE6
:10074000FFF741BE30B5041E71F1000404DB4FF029
:100750000044404264EB0101141E73F1000405DB08
:100760001C464FF00043524263EB0403994208BF1A
:10077000904230BD064C074D06E0E06840F00103B2
:1007800094E8070098471034AC42F6D3FFF728FDF1
:100790006C6100088C610008202A06DBCB17203A28
:1007A00041FA02F043EAE07306E041FA02F3D04076
:1007B000C2F12002914008431946704710B5141E3B
:1007C00073F1000408DA401C41F1000192185B410A
:1007D0001A4301D120F0010010BD2DE9F04D9246E1
:1007E0009B4611B1B1FA81F202E0B0FA80F22032F8
:1007F0009046FFF7E8FD04460F4640EA0A0041EA4A
:100800000B0153465A46084313D0114653EA0100E0
:1008100019D0C8F140025046FFF7E4FD05460E46E8
:10082000504659464246FFF7CEFD084305D0012009
:1008300004E020463946BDE8F08D0020054346EA35
:10084000E0762C4337430A986305E40AA0EB0800DE
:100850000022FD0A44EA47540A3002D5002001462E
:10086000E9E7010510196941DDE908450019694109
:10087000BDE8F04DA2E7000070B505461248002122
:10088000006805F0AFF8002818D01048046804F09C
:1008900033FA207898B100EBC00202EB00100C4A4A
:1008A000616802EB00100844686060882880E06896
:1008B000A8602069E86004F03FFA012070BD60681C
:1008C00000F5C870F0E700000C000020AC0000202C
:1008D00070FEFFFF70B50A4C206800280ED04068FB
:1008E000002518B104F03CFA206845602068806853
:1008F000002803D004F034FA2068856070BD000041
:10090000AC00002070B51F480468A4B3606800B153
:100910000120A16801B10121084301D0FFF7DAFFEE
:100920004FF4487004F0A8F84FF4C875606028468A
:1009300004F0A2F80021A0602170F8B16068F8B15D
:1009400001F0CEFE2A461048616801F01DFD0E48F8
:1009500001680A6842F010020A600068C16941F04B
:100960001001C161094800231A461946006804F0C5
:1009700041FE002070BDFFE70120FBE70220F9E700
:100980000420F7E7AC00002004010020080000204C
:1009900010B5064C2068002806D0FFF79BFF2068A2
:1009A00004F0DEF90020206010BD0000AC00002043
:1009B00010B5094C206808B1FFF7EAFF142004F0D5
:1009C0005BF8206028B100214160BDE81040FFF7CE
:1009D00099BF012010BD0000AC00002038B50546CD
:1009E0000068304988425CD1C069C043C00658D411
:1009F000296810200862A86F00F0CDF82868016807
:100A000021F49071016028688168274A1140816053
:100A10002020C5F8840025490020E8660C68002CD9
:100A20003FD0A16800293CD02178491CC9B221706F
:100A3000022900D3207000F019FB2169401AE06000
:100A400000F014FB2061A86F006840686946C0F59B
:100A5000C87060801648006804F0DAFE217860688B
:100A600001EBC10202EB011100EB01114FF4C8725E
:100A7000104801F089FC0F4801680A6842F0100232
:100A80000A600068C16941F01001C1610098002846
:100A900007D009494FF080500860BFF34F8FBFF374
:100AA0006F8F38BD00440040FEFFFFEFAC00002018
:100AB0000C0000200401002004ED00E0FEE770B50A
:100AC0000D46044605F0EAF8001BA84201D30120B8
:100AD00070BD002070BD0000014800F0CDB80000DE
:100AE00090010020014800F0C7B80000F00100208C
:100AF0000D4902688A4201D20C4901E00B492031BC
:100B0000D2B21423083AB2FBF3F2436C02F01F0294
:100B100023F003031944816404498031C164012135
:100B2000914001657047000008040240000802403F
:100B30000179074A02EB81024265054A4432491EA7
:100B4000826501F01F0201219140C16570470000DC
:100B5000FC08024030B5D0E913456560446D14B11E
:100B6000D0E91645656090F8444004F01F05012463
:100B7000AC40056C6C60046863608368102B03688C
:100B800003D099600068C26030BD9A600068C1609F
:100B900030BD7047704710B590F825300021012214
:100BA000022B03D00421C163012122E003681C68E9
:100BB00024F00E041C60836C1C6824F480741C6098
:100BC00003681C6824F001041C6090F84430046C35
:100BD00003F01F0302FA03F36360D0E913345C608F
:100BE000436D33B11C6824F480741C60D0E9163462
:100BF0005C6080F82520002280F82420084610BD83
:100C000070B590F82520002401212346022A07D040
:100C10000422C26380F8251080F82430012429E0E2
:100C20000268156825F00E0515600268156825F044
:100C300001051560826C156825F48075156090F8C3
:100C40004420056C02F01F0201FA02F26A60D0E94A
:100C500013255560426D32B1156825F48075156015
:100C6000D0E91625556080F8251080F82430816B76
:100C700001B18847204670BDF0B4016C0C68016872
:100C80000D6890F8442002F01F06042202FA06F3D1
:100C9000234211D06B070FD50B689B0603D40B685A
:100CA00023F004030B6090F8441001F01F018A4008
:100CB000016C4A60016B1DE0022303FA06F727422C
:100CC0004FF0000C4FF0010218D0AF0716D50C689A
:100CD000A40605D40C6824F00A040C6080F82520D2
:100CE00090F8441001F01F018B40016C4B6080F8BC
:100CF00024C0C16A00291AD0F0BC08470823B340B9
:100D0000234214D02B0712D50B6823F00E030B607F
:100D100090F84410036C01F01F0102FA01F15960D0
:100D2000C26380F8252080F824C0416BE2E7F0BC64
:100D30007047000070B504000CD02B4A21681420C5
:100D4000914209D2294A0A44B2FBF0F08000606463
:100D500027480AE0012070BD234A52420A44B2FBF0
:100D6000F0F080006064204808382064022084F895
:100D700025000A6847F6F0708243D4E9020318435D
:100D8000D4E904352B431843A3691843E369184396
:100D9000236A1843104308602046FFF7A9FEA068A5
:100DA0000025B0F5804F00D16560A16C2079086006
:100DB000D4E9130141606068401E032808D820462A
:100DC000FFF7B6FE606D0560D4E91601416002E0F0
:100DD0006565A565E565E563012084F8250084F86F
:100DE0002450002070BD000008040240F8FFFDBF41
:100DF0000000024070B5044690F824000025012848
:100E00000CD0012084F8240094F825600020012EE5
:100E100006D084F824000225284670BD022070BD4B
:100E2000022684F82560E0632068066826F0010643
:100E300006602046FFF78EFE206B002820680168C0
:100E400002D041F00E0106E021F0040101602068AB
:100E5000016841F00A010160A06C0168C90303D573
:100E6000016841F480710160606D18B1016841F45E
:100E7000807101602068016841F001010160CBE7E9
:100E80002DE9FC4FDFF8A0A1002301250AF1040B96
:100E900003244FF00F0C0BF1040EBDE005FA03F62E
:100EA00032406FD04F68012F05D0022F03D0112F91
:100EB00001D0122F17D1D0F808905F0004FA07F87C
:100EC00029EA08090097D1F80C8008FA07F848EADF
:100ED0000908C0F808804768B7430E79C6F30016C2
:100EE0009E403E434660C6684FEA430804FA08F74E
:100EF000BE4301978F6807FA08F73743C7604E680B
:100F0000022E01D0122E13D1DE0800EB86060096C9
:100F1000366A5F07FF0E0CFA07F926EA0906D1F8D0
:100F2000109009FA07F949EA0609009EC6F82090D0
:100F30000668019FBE430F7907F0030707FA08F719
:100F4000374307604E68F60065D5384E376E47F078
:100F500001073766366E23F0030706F00106009698
:100F6000334E3E44B146B6689F074FEA17780CFAF5
:100F700008F7BE43B0F1904F05D02E4FB84204D1D0
:100F8000012717E047E0002714E02B4FB84201D1BA
:100F900002270FE0294FB84201D103270AE0284F6A
:100FA000B84201D1042705E0264FB84201D10527F8
:100FB00000E0062707FA08F73743C9F80870DAF89F
:100FC00000605746D1F8048096435FEAC83800D5E0
:100FD00016433E60DBF800605F46D1F8048096431C
:100FE0005FEA883800D516433E60DEF80060774639
:100FF000D1F8048096435FEAC82800D516433E60C6
:10100000094F0C373E68D1F8048096435FEA882880
:1010100000D516433E605B1C0A6832FA03F67FF483
:101020003DAFBDE8FC8F000000040140001002400D
:10103000000001400004004800080048000C00487F
:1010400000100048001400480069084000D001204A
:10105000704742690A4201D08162704781617047DE
:101060000AB1816170478162704700000148806861
:101070007047000010000020024881684268114457
:10108000816070471000002010B50024032000F09C
:1010900095F8002000F008F808B1012401E000F004
:1010A0003DF8204610BD000000B5014687B0002283
:1010B0001A2000F063F81A2000F052F81348016E6D
:1010C00041F480210166006E05A900F4802006909D
:1010D000684600F015FB00F045FB0D490D4AB0FBDA
:1010E000F1F10D48491E0260416040F2E7320021F3
:1010F000C0E90321816000F0D8FD10B1012007B0E4
:1011000000BD054800F020FEF9E700000010024095
:1011100040420F0000480140500200200E4808B530
:10112000016E41F001010166016E01F001010091C3
:10113000816D41F080518165806D002200F080500A
:1011400000900F21901E00F019F80448816841F4C6
:101150008041816008BD0000001002400070004026
:10116000002809DB00F01F020121914040098000A6
:1011700000F1E020C0F8001170470000F0B40E4B01
:101180001B680C46C3F30223C3F10705042D00D9E5
:101190000425191D072901D2002300E0DB1E0126CA
:1011A00006FA05F1491E214099409E40761E1640E0
:1011B0003143F0BC02F034BA0CED00E0064900F017
:1011C000070208684FF6FF03184040EA0220034A6E
:1011D00010430860704700000CED00E00000FA05C5
:1011E0002B492C4B0A6832214A432B4940B1B0F5B8
:1011F000007F086829D020F4C06040F480602CE0B3
:101200000868C0F34120022804D051F8800F20F470
:10121000807022E0D1F8800020F48070C1F8800056
:10122000086820F4C06040F400700860B2FBF3F07E
:10123000401C00E0401E4A69520501D50028F9D142
:10124000486940050AD503207047C0F341200228B1
:1012500006D051F8800F40F480700860002070477D
:10126000D1F8800040F48070C1F88000086820F454
:10127000C06040F400700860B2FBF3F0401C00E076
:10128000401E4A695205DBD50028F9D1D8E7000095
:101290001C00002040420F00007000402DE9F84380
:1012A0000446006800269D4D00035ED5A86D00270A
:1012B000C00008D4A86D40F08050A865A86D012733
:1012C00000F080500090DFF85892D9F8001041F4F7
:1012D0008071C9F80010FFF7C9FE804606E000BF24
:1012E000FFF7C4FEA0EB080002282BD8D9F80000B5
:1012F000C005F5D5D5F8900010F4407014D0216CDD
:10130000814211D0D5F89000D5F8901020F44070AB
:1013100041F48031C5F89010D5F8901021F4803157
:10132000C5F89010C5F89000C00711D0FFF79EFED9
:10133000804641F2883907E0FFF798FEA0EB0801EC
:10134000494501D903260BE0D5F890008007F3D575
:10135000D5F89000216C20F440700843C5F8900047
:101360001FB1A86D20F08050A8652078C00707D075
:10137000D5F88800616820F003000843C5F88800AC
:101380002078800707D5D5F88800A16820F00C00E8
:101390000843C5F888002078400707D5D5F88800AD
:1013A000E16820F030000843C5F888002078000785
:1013B00007D5D5F88800216920F0C0000843C5F89A
:1013C00088002078800607D5D5F88800616920F468
:1013D00040600843C5F888002078400607D5D5F856
:1013E0008800A16920F440500843C5F8880020789F
:1013F000000607D5D5F88800E16920F4404008438D
:10140000C5F888002088C00507D5D5F88800216A6E
:1014100020F440300843C5F888002088800507D5AF
:10142000D5F88800616A20F440200843C5F8880098
:10143000208840050FD5D5F88800A16A20F4401017
:101440000843C5F88800A06AB0F5801F03D1E8689A
:1014500040F48010E860208800050FD5D5F888009A
:10146000E16A20F440000843C5F88800E06AB0F55E
:10147000800F03D1E86840F48010E8602088C00441
:101480000FD5D5F88800216B20F040700843C5F8CF
:101490008800206BB0F1807F03D1E86840F48010B1
:1014A000E86020884FF0006180040ED5D5F88800F0
:1014B000626B20F040601043C5F88800606B884282
:1014C00003D1E86840F48010E860208840040ED51D
:1014D000D5F88800A26B20F040601043C5F8880062
:1014E000A06B884203D1E86840F48010E86020884F
:1014F00000040FD5D5F88800E16B20F04050084378
:10150000C5F88800E06BB0F1805F03D1E86840F473
:101510008030E8603046BDE8F883000000100240EB
:10152000007000402DE9F0470E4605004FF000071F
:1015300025D0DFF8AC81D8F8000000F00F00B042F1
:101540000CD2D8F8001021F00F013143C8F8001078
:10155000D8F8000000F00F00B04210D12968614CAB
:10156000C80741F2883A5AD06868DFF87C910328AE
:1015700008D0022820682DD0400500282CDB01204F
:10158000BDE8F08720688001F9D5E06800F003022B
:10159000E068C0F30310401C032A19D0534A00BF6F
:1015A000B2FBF0F0E268C2F306225043E268C2F3F5
:1015B0004162521C5200B0FBF2F0484517D9A068B6
:1015C00010F0F00F0CD0880711D5A86840B10EE0DC
:1015D000474AE5E78003D0E700F0D6F8484506D94A
:1015E000A06820F0F00040F08000A0608027A06894
:1015F000696820F003000843A060FFF737FD8146CB
:1016000006E000BFFFF732FDA0EB090151453AD8D3
:10161000A068696800F00C00B0EB810FF2D1286877
:10162000810714D5400703D5A06840F4E060A060AE
:101630002878000705D5A06820F4605040F4E060E9
:10164000A060A068A96820F0F000084304E0802FA3
:1016500003D1A06820F0F000A060D8F80010404648
:1016600001F00F01B14216D9016821F00F01314399
:101670000160FFF7FBFC074607E000BFFFF7F6FC41
:10168000C11B514501D903207AE7D8F8000000F0CA
:101690000F00B042F2D12878400705D5A068E9686C
:1016A00020F4E0600843A0602878000706D5A06811
:1016B000296920F4605040EAC100A06000F064F89D
:1016C000A1680C4AC1F30311515C01F01F01C8402D
:1016D0000949086009480068BDE8F047FFF7E4BC25
:1016E000002002400010024000B4C4040024F400B2
:1016F00000127A00CC6000081C00002010000020BE
:101700000F2202600C4A936803F00303436093685E
:1017100003F0F0038360936803F4E063C3609268AE
:101720004FF4E06303EAD20202610448006800F06B
:101730000F000860704700000010024000200240C7
:101740000548064900688968054AC1F30221515CD1
:1017500001F01F01C84070471C000020001002402B
:10176000DC6000080548064900688968054AC1F33D
:10177000C221515C01F01F01C84070471C000020CD
:1017800000100240DC600008184910B58868C0F3FA
:1017900081021748012A0BD08A684310C2F38102E4
:1017A000022A06D08A68C2F38102032A03D00020ED
:1017B00010BD184610BDCA6802F00304CA68C2F31F
:1017C0000312521C032C02D0B0FBF2F001E0B3FB79
:1017D000F2F0CA68C968C2F306225043C1F34161FE
:1017E000491C4900B0FBF1F010BD000000100240A0
:1017F0000024F4002DE9F84304007AD02078FA4D53
:10180000C00747D0A868E96800F00C0001F00301A8
:101810000C2802D0082817D001E0032914D06068F2
:10182000B0F5803F17D0B0F5A02F286817D020F46E
:1018300080302860286820F4802028606068E0B14B
:10184000FFF714FC064614E02868800322D5606880
:101850000028D2D01EE0286840F48030EDE740F444
:1018600080202860F7E700BFFFF700FC801B64289A
:1018700070D828688003F7D50CE0FFF7F7FB064621
:1018800005E000BFFFF7F2FB801B6428F0D8286852
:101890008003F7D4207880074CD5A868E96800F069
:1018A0000C0001F003010C2802D004280DD001E047
:1018B00002290AD0E068002828682BD040F4807004
:1018C0002860FFF7D3FB064619E02868400502D5DB
:1018D000E068002891D06868217C20F0FE4040EA52
:1018E00001606860C1480068FFF7DEFB002800D196
:1018F00020E076E1FFF7BAFB801B0228B8D8286801
:101900004005F7D56868217C20F0FE4040EA016080
:1019100068600FE020F480702860FFF7A7FB0646A0
:1019200005E000BFFFF7A2FB801B0228A0D82868B3
:101930004005F7D42078000729D560690028D5F83C
:10194000940013D040F00100C5F89400FFF78EFB1F
:10195000064606E090E000BFFFF788FB801B0228E8
:1019600086D8D5F894008007F6D510E020F0010065
:10197000C5F89400FFF77AFB064604E0FFF776FB14
:10198000801B022878D8D5F894008007F6D42078F8
:10199000400761D5A86D0026C00008D4A86D40F0AE
:1019A0008050A865A86D012600F0805000909048F6
:1019B0000168C90511D40168804641F48071016055
:1019C000FFF754FB074604E0FFF750FBC01B02285B
:1019D00052D8D8F80000C005F6D5A068012815D067
:1019E0000528D5F8900016D020F00100C5F8900029
:1019F000D5F8900020F00400C5F89000A06841F2EE
:101A00008838B8B1FFF732FB07460EE0D5F89000F2
:101A100040F00100F0E740F00400C5F89000F5E761
:101A2000FFF724FBC11B414526D8D5F8900080075D
:101A3000F6D50CE0FFF71AFB074604E0FFF716FBAC
:101A4000C11B414518D8D5F890008007F6D41EB1C7
:101A5000A86D20F08050A8652078800629D5A0695F
:101A60000028D5F8980013D040F00100C5F8980080
:101A7000FFF7FCFA064606E077E000BFFFF7F6FA4C
:101A8000801B022877D8D5F898008007F6D510E09B
:101A900020F00100C5F89800FFF7E8FA064604E0D8
:101AA000FFF7E4FA801B022865D8D5F89800800774
:101AB000F6D4E069F0B3A968C1F38101032961D0CC
:101AC0000228286820F0807028600BD0E86820F099
:101AD0000300E860E86847490840E860FFF7C6FA95
:101AE00004464BE0FFF7C2FA064604E0FFF7BEFAF1
:101AF000801B02283FD828688001F7D4F4E9080148
:101B00006FF00F0202EB01110843218A52044908C9
:101B100002EB4151A26841EA02210843217D4FF0C6
:101B20007E42490802EB41610843217B40EAC160E3
:101B3000E96800E062E0304A11400843E860286844
:101B400040F080702860E86840F08070E860FFF73F
:101B50008DFA044605E000BFFFF788FA001B022853
:101B600009D828688001F7D548E004E0FFF77EFA3D
:101B7000001B022802D90320BDE8F88328688001F1
:101B8000F4D43BE00128F7D0E868226A00F00301B2
:101B9000914226D1616A00F0F002090110399142A8
:101BA0001FD1A26A00F4FE41B1EB022F19D194F8C3
:101BB0002C2000F07841B1EBC26F12D1218E00F4DD
:101BC000C00249084905A1F50011914209D194F8D4
:101BD000341000F0C06049084906A1F1007181424B
:101BE0000CD00120C8E700000010024010000020C7
:101BF00000700040FFFFEEFE0C809F010020BBE75D
:101C0000704770477047704770477047F0B590F85D
:101C10003C20012A3AD0012580F83C50022280F86D
:101C20003D2003685A689C68194E1A4FB34201D090
:101C3000BB4204D122F4700C4A6842EA0C02DFF87D
:101C400058C002EA0C02D1F800C04CEA020CC3F8FA
:101C500004C00268B2420DD0B2F1804F0AD00F4BDF
:101C60009A4207D00E4B9A4204D0BA4202D00D4B92
:101C70009A4204D1896824F080031943916080F866
:101C80003D50002180F83C100846F0BD0220F0BD18
:101C9000002C0140003401408FFFFFFD0004004094
:101CA0000008004000400140704710B5040003D018
:101CB00094F83D0010B107E0012010BD002084F829
:101CC0003C00204600F022F8022084F83D00211D4F
:101CD000206800F0B7FE012084F8480084F83E0038
:101CE00084F83F0084F8400084F8410084F8420002
:101CF00084F8430084F8440084F8450084F84600E2
:101D000084F8470084F83D00002010BD08B5006845
:101D10000B49884212D10B48816D41F01001816559
:101D2000806D002200F01000009005213620FFF7A2
:101D300025FABDE808403620FFF712BA08BD0000BA
:101D4000001000400010024090F83D10012901D021
:101D500001207047022180F83D100168CA6842F0F6
:101D60000102CA6000688168064A1140062906D04F
:101D7000B1F5803F03D0016841F00101016000200E
:101D80007047000007000100704770B50446006806
:101D900001694FF00005C943890715D4C168C943DB
:101DA000890711D4E91E016101202077206880692C
:101DB0008007204602D0FFF7E7FF04E000F0E3F8D9
:101DC000204600F0E1F8257720680169C9434907FA
:101DD00017D4C168C943490713D46FF004010161E6
:101DE000022020772068806910F4407F204602D0CE
:101DF000FFF7CAFF04E000F0C6F8204600F0C4F880
:101E0000257720680169C943090716D4C168C94309
:101E1000090712D46FF008010161042020772068BF
:101E2000C0698007204602D0FFF7AEFF04E000F053
:101E3000AAF8204600F0A8F8257720680169C94370
:101E4000C90617D4C168C943C90613D46FF010017D
:101E50000161082020772068C06910F4407F204687
:101E600002D0FFF791FF04E000F08DF8204600F06B
:101E70008BF8257720680169C943C90708D1C16873
:101E8000C943C90704D1891E0161204600F07EF8CC
:101E900020680169C943090609D4C168C943090614
:101EA00005D46FF0800101612046FFF7AAFE20688B
:101EB0000169C943C90509D4C168C943090605D4E4
:101EC0006FF4807101612046FFF79AFE2068016976
:101ED000C943490609D4C168C943490605D46FF00E
:101EE00040010161204600F069F820680169C9439A
:101EF000890609D4C168C943890605D46FF0200159
:101F000001612046FFF77EFE20680169C943C902CE
:101F100009D4C168C943C90205D46FF480110161B5
:101F20002046FFF771FE20680169C943890209D480
:101F3000C168C943890205D46FF4001101612046CC
:101F4000FFF761FE20680169C943490209D4C168ED
:101F5000C943490205D46FF4800101612046FFF7AF
:101F600054FE20680169C94309020BD4C168C94302
:101F7000090207D46FF4000101612046BDE87040FA
:101F8000FFF792BE70BD70477047000010B5044661
:101F900000680749884201D1FFF76EF805492068BB
:101FA000884203D104480168491C016010BD00004B
:101FB0000048014000100040B4000020704790F835
:101FC0007C10012918D0012180F87C102421C0F850
:101FD000801050F8601B0A680B6823F001030B6047
:101FE00022F000510022426050F8603C196020212C
:101FF000016202771046704702207047704770B543
:10200000044690F87C0001281DD0012084F87C0053
:102010002420C4F8800020680568026822F00102CC
:1020200002602068826822F060620A438260204673
:1020300000F060FD206805602020C4F880000020CA
:1020400084F87C0070BD022070BD70B5044690F825
:102050007C0001281DD0012084F87C002420C4F8D5
:10206000800020680568026822F001020260206892
:10207000826822F060420A438260204600F03AFD06
:10208000206805602020C4F88000002084F87C00CF
:1020900070BD022070BD7047704770472DE9F04158
:1020A00003680446D8691A68996810F00F0F4FF05A
:1020B000000569D05E4E02F490770E4037437DD024
:1020C000C70709D0D70507D501271F62D4F8883084
:1020D00043F00103C4F8883083070AD5CB0708D042
:1020E000276802233B62D4F8883043F00403C4F825
:1020F000883043070AD5CB0708D0276804233B6202
:10210000D4F8883043F00203C4F8883003070CD5B4
:1021100002F02003334308D0266808233362D4F842
:10212000883043F00803C4F88830D4F88830002B96
:102130003CD0800609D502F0200001F08051084310
:1021400003D0E16E09B120468847D4F888002168A1
:102150008968490601D400072AD5204600F002FE0E
:102160002068816849061ED5816821F040018160A0
:10217000A06FC0B12F498163A06FFEF741FD002819
:1021800014D0A06F816B0AE0860617D502F02006F6
:1021900001F080573E4311D0E16E24E02046BDE8B7
:1021A000F04108470AE02046FFF777FFBDE8F081DD
:1021B0002046FFF772FFC4F88850F7E7C60209D53A
:1021C0004E0207D54FF4801018622046BDE8F0415A
:1021D000FFF762BF060609D502F0800601F4000190
:1021E0000E4303D0216F0029D8D1DFE741060DD57A
:1021F00051060BD51968204621F0400119602021B5
:10220000C4F88010256700F05FF9CFE7010206D51A
:10221000510004D52046BDE8F041FFF73CBFC001A6
:10222000C4D5002AC2DA2046BDE8F041FFF7E6BE79
:10223000010000107F2C000810B5040003D0D4F872
:10224000800010B107E0012010BD002084F87C0060
:10225000204600F027F82420C4F880002068016898
:1022600021F001010160204600F09CFD0128EBD027
:10227000A06A10B1204600F06FFC2068416821F48C
:10228000904141602068816821F02A0181602068C6
:10229000016841F0010101602046BDE8104000F0F6
:1022A000BFBC00002DE9F04186B005461421684608
:1022B000FEF758F82F492868884257D12E48816D7B
:1022C00041F400318165816D01F400310591C16CEB
:1022D00041F00201C164C06C4FF0000800F0020040
:1022E0000590182000900220CDE901080720CDE9D3
:1022F0000380474669462148FEF7C2FD214C20482D
:10230000802620601A20C4E90107C4E903766761CA
:10231000A761E7614FF4405720462762FEF70AFDA8
:1023200008B1FEF737FCAC67A562164C1448603460
:10233000143020601B2060601020A060C4E9038678
:10234000C4F81480C4F81880C4E907872046FEF753
:10235000F1FC08B1FEF71EFC6C6700220521262067
:10236000A562FEF70BFF2620FEF7FAFE06B0BDE8D9
:10237000F0810000004400400010024000040048CA
:10238000080002409001002070B50446D0F8840097
:10239000202842D161B35AB394F87C0001283CD084
:1023A000012084F87C00A165A4F85C200025C4F815
:1023B00088502220C4F88400A06FD8B11849C162A7
:1023C000A16F184813460863A16F17484863A06FB0
:1023D0008563A66D216832462431A06FFEF70AFDA1
:1023E00040B11020C4F8880004F87C5F20206060B1
:1023F000012070BD84F87C502068016841F4807130
:1024000001602068816841F0010181602068816875
:1024100041F040018160002070BD022070BD0000CD
:10242000E32C0008212D0008932C0008704770470A
:1024300070B50446D0F8800020283DD171B36AB34E
:1024400094F87C00012837D0012084F87C002165B5
:10245000A4F85420A4F856200025C4F88850212060
:10246000C4F88000606FD8B11449C162616F14482C
:1024700013460863616F13484863606F856326687D
:10248000216D06F12802606FFEF7B4FC40B1102008
:10249000C4F8880004F87C5F20206060012070BDD3
:1024A00021684020086284F87C502068816841F0EF
:1024B00080018160002070BD022070BD2B2D0008BE
:1024C0005B2D0008932C000808B500680949884274
:1024D0000FD109486946006803F09AF9009800286E
:1024E00007D006494FF080500860BFF34F8FBFF30D
:1024F0006F8F08BD004400400800002004ED00E09C
:102500007047FEE702490968002900D0087070474B
:10251000A800002070B51A480468002C1FD0194D7F
:1025200040212846FEF790FD002820784FF4FA71EC
:102530004FF4617214D058B1022819D003281DD06D
:1025400004280CD117E000BFFEF7B9FA002806D026
:1025500040212846FEF77DFD03F0A0FB606070BDC2
:102560000128F5D0022806D0032807D00428F6D188
:1025700064216068E8E711466068E5E76068E3E7C2
:10258000A800002000080048114808B5816C41F0FF
:1025900004018164816C01F004010091816C41F0BF
:1025A00001018164806C002200F00100009005218F
:1025B0000B20FEF7E3FD0B20FEF7D2FD00220521E4
:1025C0000C20FEF7DBFDBDE808400C20FEF7C8BD7F
:1025D0000010024010B501210D4A084601F060FDCF
:1025E0000C4C0B4A0121A0601032084601F058FD46
:1025F000074AE060483A0021074801F0A9FD044A73
:102600002060243A0021054801F0A2FD606010BD61
:10261000AC600008000000204D2700085527000886
:1026200010B586B014216846FDF79CFE1948C16CB0
:1026300041F02001C164C16C01F020010591C16C21
:1026400041F00401C164C16C01F004010591C16C49
:1026500041F00101C164C16C01F001010591C16C3F
:1026600041F00201C164C06C0B4C00F00200059007
:10267000012240212046FEF7F3FC4020009001207B
:102680000021CDE90101039169462046FEF7F8FBE0
:1026900006B010BD00100240000800483EB50024FE
:1026A0000E48009401940C4902940160A921C0E9EC
:1026B000011431218461C160FFF7F7FA08B1FEF718
:1026C00069FA0094694605480294FFF79FFA0028CA
:1026D00001D0FEF75FFA3EBD00100040B8000020B8
:1026E000184810B5164901604FF4E12141600021FE
:1026F00081600C22C160C0E904128161C161016284
:1027000041628162FFF798FD08B1FEF743FA0021AC
:102710000C48FFF79AFC08B1FEF73CFA0021094883
:10272000FFF76DFC08B1FEF735FA0648FFF747FCE6
:10273000002803D0BDE81040FEF72CBA10BD000001
:102740000044004004010020FEE77047012001F032
:1027500055FCFBE71FB50024FEF72AF903F09EFAAB
:10276000334F4FF4C8760A2002F0C6FB641CA4B2B3
:10277000632C01D9002401E0002C37D1304602F04F
:102780007BF9050032D03146FDF7ECFD284602F01A
:102790006FFC28A001F02EFD324801F02BFD2946E8
:1027A00031A001F027FD23A001F024FD3146284689
:1027B000FDF7D8FD284602F001FC2CA001F01AFD1F
:1027C000294629A001F016FD1AA001F013FD02F020
:1027D000B3FD014631A001F00DFD02F0B3FD01464D
:1027E00037A001F007FD284602F0BAFA6846FEF766
:1027F00043F8002815D03EA0039901F0FBFC45A04A
:10280000029901F0F7FCBDF800104BA001F0F2FCBA
:10281000BDF8002001990020885451A0019901F0D1
:10282000E9FC3878FFF76EFEFFF774FE9BE70000C7
:10283000B00000202D2D2D2D2D2D2D2D2D2D2D2DAC
:102840002D2D2D2D2D2D2D2D2D2D2D2D2D2D2D2DB8
:102850002D2D2D2D2D2D2D2D2D2D2D2D2D2D2D2DA8
:102860002D0D0A002861000825730000E4BBBBE5BC
:102870008AA1E5908D200909E8BF90E8A18CE8AE17
:10288000A1E695B0202020202020202020E4BDBFFC
:10289000E794A8E78E875C720A000000E5BD93E527
:1028A000898DE69CAAE58886E9858DE5A086E5A464
:1028B000A7E5B08F3A202564427974650D0A0000BF
:1028C000E69CAAE58886E9858DE58685E5AD98E5EF
:1028D000A086E58E86E58FB2E69C80E5B08FE58028
:1028E000BC203A2564427974650D0A0A0000000094
:1028F000E4B8B2E58FA332E68EA5E694B6E695B0CD
:10290000E68DAEE697B6E997B4EFBC9A25646D7391
:102910000D0A0000E4B8B2E58FA332E68EA5E69476
:10292000B6E697B6E997B4E591A8E69C9FEFBC9A06
:1029300025646D730D0A0000E4B8B2E58FA332E69A
:102940008EA5E694B6E695B0E68DAEE995BFE5BAFC
:10295000A6EFBC9A2564427974650D0A0000000058
:10296000E4B8B2E58FA332E68EA5E694B6E695B05C
:10297000E68DAEEFBC9A25730D0A000010B550200D
:1029800080F31188BFF34F8FBFF36F8F03F08CF983
:1029900018B104494FF080500860002080F311887E
:1029A00010BD000004ED00E030B5A5B03821684648
:1029B000FDF7D8FC14211FA8FDF7D4FC44210EA874
:1029C000FDF7D0FC0020FEF70BFC01200090000476
:1029D000019002240325CDE907455520CDE90940A2
:1029E0000B940C9468460D94FEF704FF0F20CDE97C
:1029F0001F0500252195229508211FA82395FEF784
:102A000091FD0EA810950E94FEF748FC25B030BD40
:102A10000548016841F47001016003494FF000600E
:102A2000803908607047000088ED00E00148FFF73A
:102A3000ACB90000500200200148FFF7A6B9000021
:102A4000B80000202DE9F0430268234B234D244EAB
:102A5000244C4FF08049984207D0484505D0A84201
:102A600003D0B04201D0A04203D122F070074A68DF
:102A70003A431D4FDFF874C0DFF8748098420DD0E0
:102A800048450BD0A84209D0B04207D0A04205D09B
:102A9000B84203D0604501D0404503D122F44075CF
:102AA000CA682A434D6922F080022A4302608A687C
:102AB000C2620A688262984207D0A04205D0B8423A
:102AC00003D0604501D0404501D10969016301216E
:102AD0004161BDE8F0830000002C0140000400408B
:102AE0000008004000340140004001400044014023
:102AF000004801403FB514A1D1E90021CDE90021F2
:102B000013A2D2E90012CDE90212416EB9B10268F6
:102B100091689268C1F34261520F1DF80240E500CE
:102B200002ACA25CB5FBF2F2A0F86A201DF801200D
:102B3000615CD200B2FBF1F1A0F868103FBD012149
:102B4000A0F86A10F8E70000010101030701000086
:102B5000080402040801010190F82810C90706D0F2
:102B600001684A68C36A22F400321A434A6090F846
:102B70002810890706D501684A68036B22F4803261
:102B80001A434A6090F82810490706D501684A6838
:102B9000436B22F480221A434A6090F828100907F8
:102BA00006D501684A68836B22F400421A434A60E2
:102BB00090F82810C90606D501688A68C36B22F40C
:102BC00080521A438A6090F82810890606D5016859
:102BD0008A68036C22F400521A438A6090F8281025
:102BE000490611D501684A68436C22F480121A43E1
:102BF0004A60416CB1F5801F06D101684A68836C58
:102C000022F4C0021A434A6090F82810090606D53B
:102C100001684A68C06C22F4002202434A6070478F
:102C2000F8B500260446C0F88860FEF71FFA05468E
:102C3000206800686FF07E47000708D52B46002209
:102C40004FF400112046009700F07FFC60B9206827
:102C5000006840070AD52B4600224FF48001204629
:102C6000009700F072FC08B10320F8BD2020C4F8E2
:102C70008000C4F8840084F87C600020F8BD10B5A2
:102C8000806A0021A0F85E10A0F85610FFF705FA40
:102C900010BD70B5846AD4F88000D4F884502168DF
:102CA00089684FF00006090606D5212804D1A4F84A
:102CB0005660204600F068F820688068400606D517
:102CC000222D04D1A4F85E60204600F04BF8D4F821
:102CD000880040F01000C4F888002046FFF7DDF9B6
:102CE00070BD10B50146806A09680968890614D468
:102CF0000021A0F85E1001680A6822F480720A6060
:102D000001688A6822F001028A6001688A6822F0FC
:102D100040028A602021C0F88410FFF787FB10BDB5
:102D200010B5806AFFF783FB10BD10B50146806ABD
:102D30000968096889060DD40021A0F856100168B9
:102D40008A6822F080028A600068016841F04001D0
:102D5000016010BDFFF7B8FB10BD10B5806AFFF72A
:102D6000CFFB10BD01680A6822F490720A60016806
:102D70008A68044B1A408A602021C0F88410002120
:102D8000C1667047FEFFFFEF01680A6822F0C002CB
:102D90000A6001688A6822F400028A602021C0F873
:102DA000801070472DE9F05F044601688068236950
:102DB000E5691843636900272B431843636EFA4A99
:102DC00003430868F94D28401843086020684168AB
:102DD000E36821F44051194341602168A0699142A0
:102DE00001D0236A18438B68F14D2B4003438B605D
:102DF0002068C16A636A21F00F011943C162ED4B7B
:102E00002068ED4998420DD1D1F8881011F00301E6
:102E100006D001295AD0022956D003293FD157E0C4
:102E200001253DE0E54B98420BD1D1F8881011F017
:102E30000C0147D0042949D0082945D00C292ED1AE
:102E400046E0DF4B98420BD1D1F8881011F03001E9
:102E500038D010293AD0202936D030291FD137E078
:102E6000D84B98420BD1D1F8881011F0C00129D06D
:102E700040292BD0802927D0C02910D128E09042AA
:102E80000DD1D1F8881011F440611BD0B1F5806FDD
:102E90001CD0B1F5006F17D0B1F5406F18D01025D8
:102EA000DFF824A34FF480764FF000094FF4004B75
:102EB00090426ED175B1022D29D0042D59D0082D24
:102EC00068D176E00025EBE70225E9E70425E7E78E
:102ED0000825E5E7FEF734FC4DE0012851D0022833
:102EE00051D0032851D0042851D0052853D00628AA
:102EF00053D0072853D0082853D0092853D00A2884
:102F000053D00B2853D03AE0B1FBF0F06CE0606A8C
:102F1000A8B1012817D0022817D0032817D00428F9
:102F200017D0052817D0062817D0072817D008284B
:102F300017D0092817D00A2817D00B2817D001203E
:102F4000BAFBF0F050E00220FAE70420F8E7062090
:102F5000F6E70820F4E70A20F2E70C20F0E710205B
:102F6000EEE72020ECE74020EAE78020E8E7304663
:102F7000E6E7FEF709FC0146606A0028ADD10120B2
:102F8000C2E70220C0E70420BEE70620BCE7082015
:102F9000BAE761E14AE00A20B6E70C20B4E7102066
:102FA000B2E72020B0E74020AEE78020ACE7304613
:102FB000AAE7606AA8B1012822D0022822D00328FB
:102FC00022D0042822D0052822D0062822D0072883
:102FD00022D0082822D0092822D00A2822D00B2863
:102FE00022D00120BBFBF0F0002820D06168884689
:102FF00001EB4101814219D8B0EB083F16D817E028
:103000000220EFE70420EDE70620EBE70820E9E7E0
:103010000A20E7E70C20E5E71020E3E72020E1E7BE
:103020004020DFE78020DDE73046DBE7012739E29B
:103030007DB3022D61D0042D7DD0082DF6D1606ABC
:10304000A8B1012878D0022877D0032876D00428A8
:1030500075D0052874D0062873D0072872D00828A8
:1030600071D0092870D00A286FD00B2800D0012613
:1030700032464D46002358460021FDF729F9090242
:1030800041EA106102024FEA5800101869414246B5
:1030900070E0FFE7FEF754FB0146606AA8B1012823
:1030A00017D0022817D0032817D0042817D00528D6
:1030B00017D0062817D0072817D0082817D00928B6
:1030C00017D00A2817D00B2800D0012632464D46CB
:1030D0008CE00226FAE70426F8E70626F6E708263B
:1030E000F4E70A26F2E70C26F0E71026EEE72026A2
:1030F000ECE74026EAE78026E8E7606AA8B1012805
:1031000024D0022824D0032824D0042824D0052841
:1031100024D0062824D0072824D0082824D0092821
:1031200024D00A2824D00B2800D0012632464D4650
:1031300000235046A0E726E07AE07BE07CE07DE0DB
:103140007EE07FE080E081E082E083E00226EDE740
:103150000426EBE70626E9E70826E7E70A26E5E77F
:103160000C26E3E71026E1E72026DFE74026DDE72F
:103170008026DBE70023FDF7ABF8144AA0F5407189
:10318000914271D952E7FEF7FFFA0146606A50B3E7
:10319000012839D0022839D0032839D0042839D061
:1031A000052839D0062813E000800040F369FFCFDE
:1031B000FFF4FF11003801400010024000440040BD
:1031C00000480040004C00400024F400FFFC0F00C9
:1031D00024D0072824D0082824D0092824D00A285D
:1031E00024D00B2800D001264D4632460023084645
:1031F0001946FDF76DF80902626841EA10610302A1
:10320000500818186941B5E70226EDE70426EBE7F8
:103210000626E9E70826E7E70A26E5E70C26E3E7BE
:103220001026E1E72026DFE74026DDE78026DBE702
:1032300002261DE704261BE7062619E7082617E7DE
:103240000A2615E70C2613E7102611E720260FE7BC
:1032500040260DE780260BE7E0694FF6EF785845EA
:1032600070D1092D8ED200E01AE1DFE805F00609E1
:103270003C05800505058300D8E6FEF761FA01E00C
:10328000FEF770FA0146606AA8B1012815D002283D
:1032900015D0032815D0042815D0052815D00628E8
:1032A00015D0072815D0082815D0092815D00A28C8
:1032B00015D00B2814D0012612E0022610E00426B7
:1032C0000EE006260CE008260AE00A2608E00C2696
:1032D00006E0102604E0202602E0402600E08026DA
:1032E000B1FBF6F01AE0606AA8B101282BD00228E1
:1032F0002BD003282BD004282BD005282BD0062830
:103300002BD007282BD008282BD009282BD00A280F
:103310002BD00B2800D00126BAFBF6F041006068E4
:1033200001EB5001B1FBF0F080B2A0F1100141457A
:10333000A2D84FF6F0710140C0F34200014320686B
:10334000C160AFE046E00226E6E70426E4E7062691
:10335000E2E70826E0E70A26DEE70C26DCE710268F
:10336000DAE72026D8E74026D6E78026D4E7FEF71E
:103370000BFA87E7606AA8B1012817D0022817D096
:10338000032817D0042817D0052817D0062817D0EF
:10339000072817D0082817D0092817D00A2817D0CF
:1033A0000B2800D00126BBFBF6F0B7E70226FAE7B0
:1033B0000426F8E70626F6E70826F4E70A26F2E7E9
:1033C0000C26F0E71026EEE72026ECE74026EAE799
:1033D0008026E8E7092DBFF4D5AEDFE805F0060941
:1033E0003C0583050505860020E6FEF7A9F901E006
:1033F000FEF7B8F90146606AA8B1012815D0022885
:1034000015D0032815D0042815D0052815D0062876
:1034100015D0072815D0082815D0092815D00A2856
:1034200015D00B2814D0012612E0022610E0042645
:103430000EE006260CE008260AE00A2608E00C2624
:1034400006E0102604E0202602E0402600E0802668
:10345000B1FBF6F11AE0606AA8B101282ED002286B
:103460002ED003282ED004282ED005282ED00628B2
:103470002ED007282ED008282ED009282ED00A2892
:103480002ED00B2800D00126BAFBF6F1606801EBC4
:103490005001B1FBF0F080B2A0F110014145A3D87A
:1034A0002168C8600120A4F86A0024F8680F384633
:1034B000C4F80490C4F80890BDE8F09F0226E3E742
:1034C0000426E1E70626DFE70826DDE70A26DBE734
:1034D0000C26D9E71026D7E72026D5E74026D3E7E4
:1034E0008026D1E7FEF750F984E7606AA8B1012889
:1034F00017D0022817D0032817D0042817D0052882
:1035000017D0062817D0072817D0082817D0092861
:1035100017D00A2817D00B2800D00126BBFBF6F1E4
:10352000B4E70226FAE70426F8E70626F6E70826B7
:10353000F4E70A26F2E70C26F0E71026EEE720264D
:10354000ECE74026EAE78026E8E72DE9F0419846D7
:1035500017460E460446069D08E0681C06D0FDF797
:1035600085FDA0EB0800A8420BD855B12068C069C2
:1035700036EA000019D00020B842EED00020BDE8A5
:10358000F0812068016821F4D071016020688168B1
:1035900021F0010181602020C4F88000C4F884007B
:1035A000002084F87C000320E9E70120E4E7000024
:1035B00010B50448FDF712FABDE810400148FEF7C7
:1035C0006DBD000004010020FEE700000FB4084BB1
:1035D00010B504A902AA039800F004F9044602A950
:1035E000002000F0A1FC204610BC5DF814FB000098
:1035F000293F00087CB5044600201D4616460029D8
:103600000BD0491ECDE90041044B6A46294630469D
:1036100000F0E8F8009A002111707CBD133F00080B
:103620000907090E002804DB00F1E02080F80014EF
:10363000704700F00F0000F1E02080F8141D704783
:1036400002E008C8121F08C1002AFAD1704770476B
:10365000002001E001C1121F002AFBD170470000C9
:103660002DE9FF5F82B00021DDE90430020DDDF8B5
:1036700040B0034318D044F61050A2F2FF32424348
:103680001514119801281FD0A5EB0B00401C5FEA10
:10369000000A4FF000064E4FDFF83891B046504612
:1036A00015D5CAF1000413E0119801244AA301289A
:1036B00001D16FEA0B010298119AC0E90031C0E90B
:1036C000024206B0BDE8F09FCBF10000DFE7044600
:1036D0000021404A491842EB0450CDE9001012E0A5
:1036E000E00707D032463B4640464946FCF731FFEB
:1036F0008046894632463B4610461946FCF729FF6C
:1037000006460F466410002CEAD1DDE90401DDE92C
:103710000023BAF1000F06DAFCF71BFF42464B46C6
:10372000FCF717FF05E0FCF786FF42464B46FCF727
:1037300082FF04460E460022284BFDF703F803D80B
:103740004FF0FF30014607E00022254B204631466E
:10375000FCF758FEFCF7DEFF102409E0002C0ADB22
:103760000A220023FCF7B4FD039B30321A55641E75
:1037700050EA0102F2D1641C039AC4F1110314440B
:10378000119A012A03D0012208430DD10AE008430F
:1037900004D000204FF0110B119072E7A3EB0B0542
:1037A0006D1E0DE05B4504DD4FF0000205F10105E3
:1037B00004E003DA4FF00002A5F10105002AECD085
:1037C00002981199C0E90231C0E9004579E700008B
:1037D000000014400000F03F300000000000F04303
:1037E0000000E03F2DE9FF4F95B09B468946064615
:1037F00000250FE2252877D100242746F84A012129
:10380000059400E0044316F8013F203B01FA03F061
:103810001042F7D130782A2811D06FF02F0330787A
:10382000A0F13002092A16D8059A44F0020402EBEE
:10383000820203EB42021044761C0590EFE759F830
:10384000042B0592002A03DA504244F400540590F8
:1038500044F00204761C30782E2816D116F8010F99
:1038600044F004042A280DD06FF02F023078A0F124
:103870003003092B09D807EB870302EB4303C71872
:10388000761CF3E759F8047B761C30786C280FD04F
:1038900006DC4C2817D068280DD06A2814D104E023
:1038A000742810D07A280FD10DE044F400140AE0F7
:1038B00044F4801401E044F440147278824202D14E
:1038C00004F58014761C761C307866280BD013DC47
:1038D000582877D009DC002875D04528F6D046282E
:1038E000F4D047281AD19DE118E0632835D0642828
:1038F00079D0652812D195E1702873D008DC67284B
:10390000F1D069286FD06E280DD06F2806D1B5E0B0
:1039100073282CD0752875D0782874D05A461799FA
:1039200090476D1C75E1C4F30250022809D00328AA
:103930000DD0D9F8001004280DD00D6009F104094C
:1039400067E1D9F80010EA17C1E90052F6E7D9F8A3
:1039500000100D80F2E70D70F0E719F8041B8DF8E8
:10396000001000208DF80100EA46012003E059F81C
:1039700004AB4FF0FF3061074FF0000102D40DE0BF
:1039800008F101018846B9420FDA8045F8DB1AF8E0
:1039900008100029F4D108E008F1010188468142AD
:1039A000FADB1AF808100029F6D105985B46A0EB5F
:1039B000080721463846179A00F094FA284400EB8D
:1039C000080507E04DE029E10DE01AF8010B5A4621
:1039D00017999047B8F10108F7D25B46214638465F
:1039E000179A13E142E00A220092C4F302524FF008
:1039F000000A022A08D059F804CB032A4FEAEC71D6
:103A00000AD00DE029E02AE009F1070121F00702C0
:103A1000F2E802C1914609E00FFA8CFC4FEAEC7122
:103A2000042A03D14FFA8CFC4FEAEC71002907DA23
:103A30000A460021DCF1000C61EB02012D2202E0BC
:103A4000220504D52B228DF80420012203E0E20791
:103A500001D02022F7E7904659E00A2102E0102227
:103A60000DE010214FF0000A00910BE010224FF002
:103A7000000A44F004040827009203E008224FF0F3
:103A8000000A0092C4F30252022A05D059F804CB6E
:103A90000021032A08D009E009F1070121F00702FB
:103AA000F2E802C1914605E01FFA8CFC042A01D11C
:103AB0000CF0FF0C4FF00008220728D5702806D024
:103AC000009B83F0100353EA0A0305D00EE0402266
:103AD0008DF80420012208E05CEA010206D03022C1
:103AE0008DF804208DF8050002229046009B83F09B
:103AF000080353EA0A030AD15CEA010201D1620712
:103B000005D530228DF804204FF001087F1E58287B
:103B100004D034A003900EA802900DE036A0F9E77F
:103B200053466046009AFCF7D3FB84460398825CB8
:103B30000298401E029002705CEA0100F0D10298E7
:103B400006A9081A00F1200A600702D524F480347F
:103B500000E00127574502DDA7EB0A0000E0002046
:103B600000EB0A01009005984144401A0590E003DB
:103B700006D45B462146179A059800F0B3F9054430
:103B8000002706E001A85A46C05D179990476D1CB2
:103B90007F1C4745F6DBE0030CD55B462146179AB0
:103BA000059800F09FF9054404E030205A46179923
:103BB00090476D1C0099481E00900029F5DC08E034
:103BC000029802995A460078491C02911799904729
:103BD0006D1CBAF10001AAF1010AF1DC65E10000F7
:103BE00009280100303132333435363738396162D3
:103BF0006364656600000000303132333435363797
:103C000038394142434445460000000000F058F96D
:103C10000544761C307800287FF4ECAD19B02846B6
:103C2000BDE8F08F620700D4062709F1070222F0F1
:103C3000070CFCE80223E14603F000485FEA080CA9
:103C400002D00FF2702C0DE05FEA045C02D50FF297
:103C5000682C07E05FEAC47C02D00FF2602C01E020
:103C6000AFF2700C4FF0FF3823F00043CDF850C096
:103C700065280CD006DC452809D046281DD04728E9
:103C80003DD13DE0662818D067287ED138E000217C
:103C9000112F01DB112000E0781CCDE9000106A9FD
:103CA0000EA8FFF7DDFCDDE90F010E9A039100215C
:103CB000009207F1010A04914DE04FF00040009797
:103CC000CDE9011006A90EA8FFF7CAFCDDE90F0235
:103CD00003920E9B11990022DDF80CA00093049230
:103CE00011B9791C00EB010AB7EB0A0004D4C0F14A
:103CF000FF3007F1010A0490AAEB0700019044E0AD
:103D0000012F00DA01270021112F01DD112000E031
:103D10003846CDE9000106A90EA8FFF7A1FCDDE9B0
:103D20000F010E9A0391002104910092BA462107D7
:103D30000CD40399514500DA8A46BAF1010F05DD2A
:103D4000009AAAF10101515C302908D0B84202DA88
:103D500010F1040F06DA0121CDE9011015E0AAF1F6
:103D60000101E9E7002805DC049901440491AAEB6C
:103D7000000102E0411C514500DD8A460499401AC9
:103D8000401C01904FF000400290200704D401989D
:103D9000504501DBCDF8048000208DF84F000298DB
:103DA0000DF14F07B0F1004F25D02B200E90029857
:103DB0004FF0020800280CDA404202902D200E90AD
:103DC00007E00A210298FCF7E8FA3031029007F880
:103DD000011DB8F10001A8F10108F2DC02980028E9
:103DE000EFD1791E0E980870307800F0200040F076
:103DF000450007F8020D12A8C01B00F1070814982F
:103E0000007800B1012000EB0A01019801EBE0719C
:103E100005984144401A401E0590E00306D45B46D5
:103E20002146179A059800F05DF80544149800782B
:103E300018B15A46179990476D1CE00324D55B468C
:103E40002146179A059800F04DF805441CE00498A7
:103E5000002807DBDDE90301884203DD0098405CB0
:103E6000179901E0179930205A469047049805F1B8
:103E70000105401C04900198401E019004D12E20A1
:103E80005A46179990476D1CBAF10001AAF1010A30
:103E9000DDDC05E017F8010B5A46179990476D1CB9
:103EA000B8F10001A8F10108F4DC5B462146179A3D
:103EB0000598ABE62D0000002B000000200000005C
:103EC0002DE9F041044600251E461746880404D417
:103ED00005E039462020B0476D1C641EF9D5284600
:103EE000BDE8F0812DE9F041044600251E469046CC
:103EF000C80301D5302700E02027880404D505E059
:103F000041463846B0476D1C641EF9D52846BDE8C9
:103F1000F0814A68002A06D00A68531C0B601070B2
:103F20004868401E486070470A68531C0B60107058
:103F300070470000054910B500204860FEF7AEFB51
:103F4000BDE810400248FDF7FFBE0000B0000020B1
:103F5000B80000202DE9F041040006D0184E30686A
:103F600084420AD10020BDE8F081502080F31188FE
:103F7000BFF34F8FBFF36F8FFEE700F0BDFE6569A3
:103F80007768B66800F0D8FEBD4201D0B54201D1D5
:103F90000220E8E70B48854208D1A06A0028F7D143
:103FA00094F85C000128F3D00320DCE705481438BE
:103FB000854202D00DB10120D5E70420D3E70000EF
:103FC000200000208C070020014840687047000056
:103FD000B0000020FDF758F8FEF7E6FCFEF720FBE6
:103FE000FEF7D2FAFEF75AFBFEF77AFB00F020F854
:103FF000FEF7F0FA00F036F8FEE7000010B5EFF338
:10400000058179B9EFF3108111B9EFF3118119B17D
:1040100006490968022905D0002408B100F06CFFA8
:10402000204610BD6FF00504FAE70000780000207C
:10403000EFF3058068B9EFF310820949086812B9F7
:10404000EFF311820AB1022803D028B14FF0FF30FC
:1040500070476FF00500704701200860002070472E
:104060007800002010B5EFF3058070B9EFF31082EF
:104070000A49086812B9EFF311820AB1022804D084
:10408000012805D04FF0FF3010BD6FF0050010BDC6
:104090000220086001F0C4F8002010BD7800002064
:1040A000F8B5144603460E464FF00005EFF30580C1
:1040B000E8BBEFF3108010B9EFF3118018B123487B
:1040C0000068022840D093B39E423DD84CB1A0680E
:1040D0000028E06803D0502836D3012002E008B160
:1040E00032E00020012B05D010B31846A26801F081
:1040F000C6F920E040B103200090002211460120C3
:10410000A36801F000FA04E003220021012001F07D
:10411000D6F9050018D086B100231A46194601F0D9
:1041200069FA012809D0284600F098FE00250BE026
:10413000184601F087F9050006D00CB1216800E0AF
:104140000021284600F076FE2846F8BD78000020C1
:104150002DE9FF414FEA01034FF00005EFF3058120
:10416000039599BBEFF3108111B9EFF3118119B1E8
:104170001F490968022938D040B38026182100243D
:104180004AB3176807B13C4697691FB139467F1E8D
:10419000382F02D21779FF0703D0002004B0BDE802
:1041A000F081576907B1BE08D2F808C0BCF1000F12
:1041B0000DD0D568602D18D312693AB137B18DE8AA
:1041C00006103246214601F030FD03900DE0D7681D
:1041D0005FB912694AB903AACDE90012B2B2214609
:1041E00001F0F6FC012800D003950398D6E7000003
:1041F000780000200FB44FF47A7170B5124D286822
:1042000001F0F0FB01281CD1104805AB046894B103
:10421000A06880B14FF4C8763146049AFFF7EAF9F6
:104220000204120C07D0B24205D80948A168FEF773
:10423000FFF8002805D000231A461946286801F027
:10424000D9F970BC5DF814FB08000020AC00002018
:10425000040100202DE9F041134C0F460546666924
:104260002068001D00F096FC681C07D137B121685A
:10427000BDE8F0410D48091D00F032BD206835440D
:10428000B5424560216805D2A068BDE8F041091D2E
:1042900000F00EBD6068091D00F00AFD206B85422C
:1042A00000D22563BDE8F081200000208C070020AB
:1042B0002DE9F041054600F01FFD2D4C2069401C02
:1042C000206120682B4F10B1E06930B32BE02560EE
:1042D0002069012827D1002606EB860007EB800025
:1042E00000F0D8FC761C382EF6D3234800F0D2FC20
:1042F0002148143000F0CEFC1F48283000F0CAFCE2
:104300001D483C3000F0C6FC1B48503000F0C2FC99
:10431000194860601430A06005E02068E96AC06A4E
:10432000884200D82560E06A401CE0626864E86A60
:10433000A169884200D9A06100EB800007EB8000F2
:10434000291D00F0CDFC00F0F7FCE06900280CD03E
:104350002068E96AC06A884207D208494FF0805055
:104360000860BFF34F8FBFF36F8FBDE8F08100008F
:1043700020000020DC0200203C07002004ED00E0CB
:1043800038B500F0B9FC104CA068C8B90F4800F06F
:1043900081FC0E48143000F07DFC0C482060143085
:1043A00060600A4B00202833009003F15002102176
:1043B0000A2001F0A8F8A06010B105A100F03AFDB4
:1043C000BDE8384000F0B8BC64000020A007002021
:1043D000546D72510000000030B4026C0B46002A8C
:1043E0000BD0C1681144C1608468A14201D3016847
:1043F000C16030BC1846FBF79CBF30BC70472DE94C
:10440000F041856B174604460026026C82B1C7B1A5
:10441000E068FBF78EFFE168206C091AE160226812
:10442000914202D2A168081AE060022F16D017E06C
:104430002068A8B9A06801F09BFC06460020A06097
:104440000EE06068FBF775FF216C606808446060EF
:10445000A168884204D32068606001E005B16D1E48
:104460006D1CA5633046BDE8F08110B5044690F898
:104470005D0058B101280CD002280FD0502080F3E5
:104480001188BFF34F8FBFF36F8FFEE7206B00F0F3
:1044900067FC2046BDE8104000F062BC10BD000083
:1044A00010484FF4A041420706D0C01D0D4920F02E
:1044B0000700411AC1F5A0410B4A00230144C2E99B
:1044C00000030839103A21F0070111604B600B60BE
:1044D0000B1AC0E9001393604FF000405360D060A6
:1044E00070470000780F00208C000020144E154CFF
:1044F000A6F29C474FF08058DFF84C9012E000BFC6
:1045000000F0FAFBF068C568281D00F043FB206945
:10451000401E2061E068401EE06000F00DFC28466F
:10452000FFF7A3FFE0680028EAD138680128F9D92D
:10453000C9F80080BFF34F8FBFF36F8FF2E7000021
:10454000780700202000002004ED00E070B51D4633
:10455000049C51B1C4F80020C4E90F010121204698
:1045600001F004F884F84C5070BD2460F4E70000BA
:104570002DE9F05F8846DDE90B94154683469100EE
:104580009A460A9EA522206BFBF7E5FE6FF0030119
:10459000206B01EB8501084420F00707780707D05E
:1045A000502080F31188BFF34F8FBFF36F8FFEE76A
:1045B0000025B8F1000F0FD05FF00000221818F8A6
:1045C000001082F8341018F8001011B1401C1028A7
:1045D000F4D384F8435001E084F83450382E00D3EB
:1045E0003726E662C4E91365201D00F05EFB04F186
:1045F000180000F05AFB2461C6F138006462A06123
:104600006565A56584F85C5052465946384600F009
:10461000ABFA2060B9F1000F01D0C9F80040BDE845
:10462000F09F000030B5114900E011460A6882424F
:10463000FBD34B685C18844203D14068184448603F
:10464000084643681C18944209D1084C103C246861
:10465000A24209D052681A4442600A681268026095
:10466000814200D0086030BD0460F9E78C00002072
:1046700070B5002441600B4D0061914206D8D11AFB
:104680008269914206D2011D686807E09A4203D20E
:10469000994201D3012403E0011D286800F008FBC2
:1046A000204670BD6400002010B5044600F024FBD5
:1046B000A06B28B15FF0000400F03EFB204610BD67
:1046C0000124F9E72DE9F0478146086892460C4637
:1046D000002600B3606804F1080540686060A842E5
:1046E00001D1416861606068D0F80C806068406802
:1046F0006060A84201D141686160606806EBC60154
:1047000009EB8101C76853460122384600F01AFCC4
:10471000761C4745EAD13046BDE8F08730B589B010
:104720003C4D6EE00498002806DADDE90601059AA2
:1047300090470498002864DB069C606910B1201D36
:1047400000F028FA03A800F0D7F8024604980A28D7
:1047500057D2DFE800F00505052D334A05052D3356
:1047600094F8280040F0010084F828000599A06919
:10477000059B01442046FFF77BFF68B3216A204672
:10478000884794F8280040073BD500200090059802
:10479000A169002342181946204601F02FFCD8B920
:1047A000502080F31188BFF34F8FBFF36F8FFEE768
:1047B00014F8280F20F00100207022E094F828005F
:1047C00040F0010084F828000598A06128B1811804
:1047D00013462046FFF74CFF13E0502080F311886A
:1047E000BFF34F8FBFF36F8FFEE794F82800810768
:1047F00003D4204600F0B4FA03E020F0010084F86E
:104800002800002204A9A86801F050F8002889D1E6
:1048100009B030BD640000202DE9FC410F4605467B
:1048200000F044FD01A800F067F80446019818B1B3
:1048300001F052FBBDE8FC81254EAFB17068006805
:10484000D0B30027291B3A46B06800F033FB01F0D3
:1048500043FB0028EED11F494FF080500860BFF3A2
:104860004F8FBFF36F8FE5E7A542EBD801F034FB24
:1048700030682746C068C468201D00F08BF994F8A2
:104880002800410719D5A0692B4641193A46204610
:10489000FFF7EEFEA8B100200346014600902A462D
:1048A000204601F0ABFB60B9502080F31188BFF3C4
:1048B0004F8FBFF36F8FFEE707E020F0010084F811
:1048C0002800216A20468847B4E70127BAE700009C
:1048D0006400002004ED00E006484168096829B141
:1048E0004168C968C9684968016370474FF0FF3182
:1048F000FAE700002000002070B5054601F0CEF96F
:10490000064E04463069844203D200F009F80120C3
:1049100000E0002028602046346170BD6400002063
:10492000F8B5194D20E0C068C4680668201D00F085
:1049300031F9216A2046884794F82800400713D5AA
:10494000A0693044B04206D924616060211D286806
:1049500000F0AEF908E00020034601460090324620
:10496000204601F04BFB38B1286801680029DAD1F4
:104970006968C5E90010F8BD502080F31188BFF3C5
:104980004F8FBFF36F8FFEE764000020002101E02E
:10499000401C491C0278A52AFAD0C1F38F00704749
:1049A00008484068401C4FF0500080F3118804D044
:1049B000BFF34F8FBFF36F8FFEE7BFF34F8FBFF390
:1049C0006F8FFEE794000020074C2068016841B11A
:1049D000C0680021D0F80000FFF71EFFFFF79EFE21
:1049E000F3E701210020F7E7640000202DE9F04102
:1049F000044600F081F994F9455004F1240609E0D9
:104A0000606A48B1304601F02FFA08B100F086FB29
:104A10006D1E6DB2002DF3DC4FF0FF3684F845605B
:104A200000F08AF900F068F994F9445004F1100795
:104A300009E0206948B1384601F016FA08B100F0E3
:104A40006DFB6D1E6DB2002DF3DC84F84460BDE893
:104A5000F04100F071B910B50446FBF795FC204613
:104A6000FBF78BFC202101E02154401C0F28FBD3D5
:104A700000212154204410BD2DE9F04105460027B6
:104A800000F014FC314E306808B9FFF709FDF068FA
:104A900005424BD1C5B3083568070ED005F00700B5
:104AA000C0F108000544680707D0502080F3118842
:104AB000BFF34F8FBFF36F8FFEE72DB37068854252
:104AC00034D82248103001460C6801E020460C46DC
:104AD0006168A94202D221680029F7D131688C426D
:104AE00024D007682168016060680837411B1029DD
:104AF0000FD96019420708D0502080F31188BFF306
:104B00004F8FBFF36F8FFEE710E041606560FFF7E6
:104B100089FD61687068401A7060B268904200D286
:104B2000B060F06801430020C4E9000101F0D4F94D
:104B3000780707D0502080F31188BFF34F8FBFF361
:104B40006F8FFEE73846BDE8F08100007C00002052
:104B50000449086818B10868026D521C02650868AB
:104B6000704700002000002010B5031F4FF0807434
:104B70001C601B1F21F001011960191F044B0B6001
:104B800014390A60091F6FF0020244380A6010BD30
:104B9000A1490008D0E9013201699A60D0E90123F6
:104BA0005A604A68824201D182684A6000220261EA
:104BB0000868401E08600868704700002DE9F0474B
:104BC00017460A4605460024382600F06FFBDFF83A
:104BD0008C80D8F8100082423BD3DFF88490761E98
:104BE00006EB860104EBC40009EB810105EB8000B4
:104BF0000122FFF767FD0444002EF0D104EBC4004E
:104C000005EB800002224646D8F80410FFF75AFD53
:104C1000044404EBC40005EB80000222B168FFF7F6
:104C200051FD044404EBC40005EB800004220D494F
:104C3000FFF748FD04440B4904EBC40005EB80007A
:104C400003221431FFF73EFD044417B1FFF7BCF90E
:104C5000386001F041F92046BDE8F08720000020CF
:104C6000DC02002078070020034B036003F16000A2
:104C70000860802010607047B8080020044B036073
:104C800003F1600008604FF480701060704700000E
:104C9000180B002000F108014FF0FF32C0E90112AB
:104CA000C16001610021016070470021016170470E
:104CB00030B50B685A1C02D000F1080202E002690C
:104CC00004E02246546825689D42FAD953684B6037
:104CD00099608A60516008610168491C016030BDBB
:104CE00042684A6093688B6093685960916008617C
:104CF0000168491C01607047502080F31188BFF3A0
:104D00004F8FBFF36F8F0A494868401C48600128E5
:104D10000CD10848006810F0FF0F07D0502080F336
:104D20001188BFF34F8FBFF36F8FFEE7704700000E
:104D30009400002004ED00E00849486828B1401EB6
:104D4000486001D180F311887047502080F31188AA
:104D5000BFF34F8FBFF36F8FFEE70000940000207A
:104D600070B5002827D0144DA0F108046168E868E8
:104D7000014207D1502080F31188BFF34F8FBFF35A
:104D80006F8FFEE722683AB1502080F31188BFF39D
:104D90004F8FBFF36F8FFEE78143616000F086FAAB
:104DA00060686968084468602046FFF73BFCBDE81E
:104DB000704001F091B870BD7C0000204FF0E02001
:104DC00000210161816105494FF47A720968B1FBE4
:104DD000F2F1491E41610721016170471C0000206A
:104DE00010B5FBF75FFA114910280ED300F1E0204F
:104DF00090F8F0030A78904207D2502080F311888F
:104E0000BFF34F8FBFF36F8FFEE7094800688968D3
:104E100000F4E060884207D9502080F31188BFF386
:104E20004F8FBFF36F8FFEE710BD0000940000208E
:104E30000CED00E010B5084B002200BF53F83240E3
:104E40001CB1521C082AF9D310BD43F8321003EBF1
:104E5000C201486010BD00009C02002010B5040093
:104E60000AD000F013F894F8460000280CD1204630
:104E7000BDE81040FFF774BF502080F31188BFF3E6
:104E80004F8FBFF36F8FFEE710BD0000084A00216F
:104E900002EBC1035B68834206D1002042F8310077
:104EA00002EBC10148607047491C0829F0D37047E4
:104EB0009C02002070B515460E460446FFF71CFF05
:104EC00094F944100020491C01D184F8440094F95D
:104ED0004510491C01D184F84500FFF72DFFA06B58
:104EE00028B92A46314604F1240000F035F920465D
:104EF000BDE87040FFF77ABD10B5020014D00F482E
:104F0000806B38B1502080F31188BFF34F8FBFF30F
:104F10006F8FFEE700F0CAF900211046FFF79AF9FB
:104F200000F0DAFF002807D105494FF080500860F3
:104F3000BFF34F8FBFF36F8F10BD00002000002024
:104F400004ED00E02DE9F0410C461B491646B8B1CE
:104F50004FEA000505F13400C4E90050E86A206119
:104F6000286BE061686CA060E86C6061686D002788
:104F7000A061052B12D00868854203D1277311E088
:104F80000D68E7E72373032B0CD100F08FF9A86AB3
:104F900008B10220207300F09FFF03E02846FEF7CF
:104FA000D9FF20732EB1286BFFF7F0FC2084BDE8F9
:104FB000F0812784FBE70000200000202DE9F84362
:104FC0000021804601701F480469006900EBC000A1
:104FD0008000FFF751FD060031D06A462146FFF7F9
:104FE000EDFD074600986421B0FBF1F0009018B386
:104FF00000241FE004EBC40006EB80050099A869BB
:10500000B0FBF1F940466968FFF725FD8046AA69C3
:10501000B9F1000005D003460BA14046FEF7D6FAD1
:1050200003E00CA14046FEF7D1FA4046FBF7A5F994
:105030008044641CBC42DDD33046FFF791FEBDE8DE
:10504000F883000020000020092575090925752531
:10505000250D0A0009257509093C3125250D0A0091
:1050600002498A6A02604969416070472000002055
:105070002DE9FC470021814601702348046900693D
:1050800000EBC0008000FFF7F7FC060039D00022DB
:105090002146FFF793FD0746002423E004EBC400FC
:1050A00006EB8005287B052829D2DFE800F0030500
:1050B00022242600582000E0522080464846696895
:1050C000FFF7C9FC8146A968288CCDE9000142465A
:1050D0000EA148462B69FEF779FA4846FBF74DF9D1
:1050E0008144641CBC42D9D33046BDE8FC47FFF77D
:1050F00037BE4220E1E75320DFE74420DDE7002010
:10510000DBE7BDE8FC8700002000002009256309DB
:1051100025750925750925750D0A0000014901202D
:10512000486270472000002010B50C4650B1094974
:1051300009681831FFF7BCFD2046BDE81040012189
:10514000FFF788B8502080F31188BFF34F8FBFF36B
:105150006F8FFEE72000002070B514460D4668B141
:105160000A4909681831FFF7BBFD0CB14FF0FF3554
:1051700021462846BDE87040FFF76CB8502080F308
:105180001188BFF34F8FBFF36F8FFEE72000002021
:1051900070B504003ED0226DA2B1E06C884200D30D
:1051A0000146E06A884235D0012A33D11A4D2A6877
:1051B00094420FD1502080F31188BFF34F8FBFF37B
:1051C0006F8FFEE7502080F31188BFF34F8FBFF33E
:1051D0006F8FFEE7E162A269002A02DBC1F13801AC
:1051E000A1610E4E00EB8000616906EB80008142F8
:1051F00010D1201DFFF7CEFCE06AA969884200D9D2
:10520000A86100EB800006EB8000211DBDE8704026
:10521000FFF766BD70BD000020000020DC0200200A
:1052200030B587B00024039405AA04A903A8049408
:10523000FFF71AFDDDE903010094CDE90110002319
:1052400016A11848059A00F0F0FC174D0028686375
:1052500021D000F0A3FE012809D0401C1BD1502012
:1052600080F31188BFF34F8FBFF36F8FFEE750209D
:1052700080F31188BFF34F8FBFF36F8F4FF0FF3074
:1052800028630120E8616C61FEF754FE07B0BDE8B9
:10529000304000F05DB807B030BD000049444C45D7
:1052A00000000000ED440008200000200248816B4F
:1052B000491C8163704700002000002010B51C4C81
:1052C000A06B10B10120606210BD00206062FEF78B
:1052D0007BFE2064E26B904204D92168821A4B6DF8
:1052E0001A444A65E063A069124901E0B8B1401E62
:1052F00000EB800251F82220002AF7D000EB800258
:1053000001EB820101F108034A6852684A609A423F
:1053100001D152684A60D1682160A06110BD50205F
:1053200080F31188BFF34F8FBFF36F8FFEE700004C
:1053300020000020DC020020014840687047000087
:105340007C00002001488068704700007C0000203D
:105350001CB537480168374A914207D1502080F385
:105360001188BFF34F8FBFF36F8FFEE7006831499D
:10537000491E884207D1502080F31188BFF34F8F18
:10538000BFF36F8FFEE72C4908780190FF2008706B
:1053900008788DF800009DF800009DF8002000F0CE
:1053A000F000904207D0502080F31188BFF34F8F58
:1053B000BFF36F8FFEE79DF80000204B00F0500018
:1053C00018700720986005E09DF8002052008DF8C5
:1053D0000020401E9DF800201206F5D49860032896
:1053E00007D0502080F31188BFF34F8FBFF36F8F2A
:1053F000FEE74FF440709860019808700C48203028
:10540000016841F470010160016841F07041016080
:10541000FFF7D4FC00205860FAF70CFF0848016839
:1054200041F040410160FAF7F1FE00201CBD000090
:1054300000ED00E071C20F4100E400E094000020A4
:1054400034EF00E010B50C4648B184420FD950202B
:1054500080F31188BFF34F8FBFF36F8FFEE75020AB
:1054600080F31188BFF34F8FBFF36F8FFEE70222E7
:10547000002100F024F8002800D0846310BD38B566
:105480000C4648B184420FD9502080F31188BFF3F5
:105490004F8FBFF36F8FFEE7502080F31188BFF36B
:1054A0004F8FBFF36F8FFEE702211346002200915A
:1054B000114600F028F8002800D0846338BDF8B504
:1054C00017460E46050014D0DEB105FB06F050303D
:1054D000FFF7D2FA04000AD0002084F8460004F155
:1054E00050023B46314628460094FFF72FF82046ED
:1054F000F8BD502080F31188BFF34F8FBFF36F8F3B
:10550000FEE70020E3E738B5049D18B153B1CAB1F6
:1055100081B120E0502080F31188BFF34F8FBFF39B
:105520006F8FFEE7502080F31188BFF34F8FBFF3DA
:105530006F8FFEE7502080F31188BFF34F8FBFF3CA
:105540006F8FFEE739B1502080F31188BFF34F8F82
:10555000BFF36F8FFEE750241C46012384F84630CA
:105560002B460094FEF7F2FF204638BD70B50D467D
:10557000040025D0FFF7C0FBD4E90F20216802FB0F
:105580000011A1600021A163216861600A46D4E98D
:105590000F01401E00FB0121E16021464FF0FF306A
:1055A00001F8440F487004F110008DB1FFF772FB51
:1055B00004F12400FFF76EFBFFF7BEFB012070BD76
:1055C000502080F31188BFF34F8FBFF36F8FFEE73A
:1055D00021690029F0D000F047FC0028ECD00449F4
:1055E0004FF080500860BFF34F8FBFF36F8FE3E73A
:1055F00004ED00E02DE9FF4782B01D468A464FF0DA
:105600000008040003D0BAF1000F08D011E05020C8
:1056100080F31188BFF34F8FBFF36F8FFEE7206CCD
:1056200038B1502080F31188BFF34F8FBFF36F8FD5
:10563000FEE7022D0AD1E06B012807D0502080F34D
:105640001188BFF34F8FBFF36F8FFEE700F018FB99
:105650003F4F4FF000094FF0805648B9049838B1D9
:10566000502080F31188BFF34F8FBFF36F8FFEE799
:10567000FFF742FBA06BE16B884207D3022D05D0F8
:105680000498D0B1B8F1000F1AD01EE02A46514656
:105690002046FEF7B4FE616A19B104F1240000F05F
:1056A000E3FB20B13E60BFF34F8FBFF36F8FFFF777
:1056B00043FB012006B0BDE8F087FFF73DFB22E089
:1056C0006846FFF7CDFC4FF00108FFF735FBFFF709
:1056D000EDFDFFF711FB94F94400401C01D184F863
:1056E000449094F94500401C01D184F84590FFF79F
:1056F00023FB04A9684600F031FA30B12046FFF7D9
:1057000075F900F0E9FB0020D4E7FFF7F5FAA06B8C
:10571000E16B884213D1FFF70FFB04F110000499ED
:10572000FFF702FD2046FFF761F900F0D5FB0028E6
:105730009ED13E60BFF34F8FBFF36F8F98E7FFF7A7
:10574000FBFA2046FFF752F900F0C6FB90E7000095
:1057500004ED00E02DE9F0471F469046894604001D
:1057600003D0B9F1000F08D011E0502080F3118868
:10577000BFF34F8FBFF36F8FFEE7206C38B150201F
:1057800080F31188BFF34F8FBFF36F8FFEE7022FB7
:105790000AD1E06B012807D0502080F31188BFF3B5
:1057A0004F8FBFF36F8FFEE7FFF71AFB5020EFF329
:1057B000118680F31188BFF34F8FBFF36F8FA06BFB
:1057C000E16B884206D3022F04D0002086F31188B3
:1057D000BDE8F08794F945503A4649462046FEF721
:1057E0000EFE681C04D06D1C84F845500120EDE7C6
:1057F000606A0028FAD004F1240000F035FB00288C
:10580000F4D0B8F1000FF1D00121C8F80010EDE795
:1058100070B50E46040009D0206C78B1502080F39A
:105820001188BFF34F8FBFF36F8FFEE7502080F3D7
:105830001188BFF34F8FBFF36F8FFEE7206848B921
:10584000A06838B1502080F31188BFF34F8FBFF3A9
:105850006F8FFEE7FFF7C4FA5020EFF3118580F356
:105860001188BFF34F8FBFF36F8FA16BE06B88423E
:1058700018D994F94500491CA163411C04D0401C6F
:1058800084F8450001200EE0606A0028FAD004F197
:10589000240000F0E9FA0028F4D0002EF2D0012014
:1058A0003060EFE7002085F3118870BD2DE9F747E0
:1058B000002683B08A46040003D0BAF1000F08D056
:1058C00011E0502080F31188BFF34F8FBFF36F8F2B
:1058D000FEE7206C38B1502080F31188BFF34F8F62
:1058E000BFF36F8FFEE700F0CBF9DFF8F4804FF0E5
:1058F00000094FF0805748B9059838B1502080F31F
:105900001188BFF34F8FBFF36F8FFEE7FFF7F4F9F6
:10591000A56BC5B151462046FEF75EFD6D1EA56321
:10592000206950B104F1100000F09EFA28B1C8F8C7
:105930000070BFF34F8FBFF36F8FFFF7FDF90120AA
:1059400006B0BDE8F087059808B11EB106E0FFF784
:10595000F3F927E06846FFF783FB0126FFF7ECF930
:10596000FFF7A4FCFFF7C8F994F94400401C01D1EB
:1059700084F8449094F94500401C01D184F8459086
:10598000FFF7DAF905A9684600F0E8F80028204694
:105990000AD0FFF72BF800F09FFA2046FEF784FEAE
:1059A0000028B3D00020CBE7FEF77EFE90B104F1D3
:1059B00024000599FFF7B8FB2046FFF717F800F021
:1059C0008BFA0028A2D1C8F80070BFF34F8FBFF345
:1059D0006F8F9BE72046FFF709F800F07DFA95E707
:1059E00004ED00E02DE9F343002683B004003546C2
:1059F00009D0206C78B1502080F31188BFF34F8F0D
:105A0000BFF36F8FFEE7502080F31188BFF34F8FF5
:105A1000BFF36F8FFEE700F033F9DFF83C814FF002
:105A200000094FF0805748B9049838B1502080F3EE
:105A30001188BFF34F8FBFF36F8FFEE7FFF75CF95D
:105A4000A06BC8B1401EA063206810B9FFF780F8B2
:105A5000A060206950B104F1100000F005FA28B1EF
:105A6000C8F80070BFF34F8FBFF36F8FFFF764F973
:105A7000012005B0BDE8F083049808B166B10FE0DD
:105A80003DB1502080F31188BFF34F8FBFF36F8F6C
:105A9000FEE7FFF751F95DE06846FFF7E1FA0126FE
:105AA000FFF74AF9FFF702FCFFF726F994F94400E3
:105AB000401C01D184F8449094F94500401C01D168
:105AC00084F84590FFF738F904A9684600F046F8D5
:105AD0000028204612D0FEF789FF00F0FDF920468D
